:020000020000FC
:040000003740006F16
:0400010000000000FB
:0400020000000000FA
:0400030000000000F9
:0400040000000000F8
:0400050000000000F7
:0400060000000000F6
:0400070000000000F5
:04000800FC010113E3
:04000900001120239F
:04000A00005122235C
:04000B000061242349
:04000C000071262336
:04000D0000A1282303
:04000E0000B12A23F0
:04000F0000C12C23DD
:0400100000D12E23CA
:0400110002E12023C5
:0400120002F12223B2
:04001300030124239E
:04001400031126238B
:0400150003C12823D8
:0400160003D12A23C5
:0400170003E12C23B2
:0400180003F12E239F
:0400190034202573F7
:04001A00341025F386
:04001B0034302673E4
:04001C00194000EF98
:04001D003415107313
:04001E00000120833A
:04001F0000412283F7
:040020000081230335
:0400210000C1238374
:04002200018126032F
:0400230001C126836E
:0400240002012703AB
:0400250002412783EA
:040026000281280328
:0400270002C1288367
:0400280003012E039F
:0400290003412E83DE
:04002A0003812F031C
:04002B0003C12F835B
:04002C0001012503A6
:04002D0001412583E5
:04002E0004010113B5
:04002F00302000730A
:0400300034302673CF
:04003100140000EFC8
:0400320034151073FE
:04003300FADFF06F91
:04003400FD010113B6
:0400350002812623FB
:0400360003010413AB
:04003700FCA42E23D4
:04003800FE04262379
:04003900FEC4278357
:04003A000007851323
:04003B0002C12403D7
:04003C0003010113A8
:04003D0000008067D8
:04003E00FF010113AA
:04003F0000812623F3
:0400400001010413A3
:040041000010007338
:0400420000000013A7
:0400430000C12403D1
:0400440001010113A2
:0400450000008067D0
:04004600FD010113A4
:040047000211262359
:0400480002812423EA
:040049000301041398
:04004A00000000139F
:04004B00344027F323
:04004C00FEF420237B
:04004D00304027F325
:04004E00FEF4222377
:04004F00FE04270381
:04005000FE442783C0
:0400510000F777B38A
:040052000107D79338
:04005300FCF42A236C
:04005400FC042E2357
:0400550000100793FD
:04005600FCF42C2367
:04005700FD4427033A
:04005800FD84278379
:0400590000F777B382
:04005A0004078E63A6
:04005B00FB0187130B
:04005C00FDC4278335
:04005D00003797933E
:04005E0000F707B3ED
:04005F000007A703EC
:04006000FB01869387
:04006100FDC4278330
:040062000037979339
:0400630000F687B369
:040064000047A78327
:0400650000078513F8
:04006600000700E7A8
:040067000000001382
:04006800344027F306
:04006900FEF424235A
:04006A00304027F308
:04006B00FEF4262356
:04006C00FE842703E4
:04006D00FEC4278323
:04006E0000F777B36D
:04006F000107D7931B
:040070000200006F1B
:04007100FD84278360
:040072000017979349
:04007300FCF42C234A
:04007400FDC427831D
:040075000017879356
:04007600FCF42E2345
:04007700F81FF06F0F
:04007800FCF42A2347
:04007900FD44278398
:04007A00F60794E30E
:04007B00000000136E
:04007C00000000136D
:04007D0002C1208319
:04007E0002812403D4
:04007F000301011365
:040080000000806795
:04008100FD01011369
:04008200021126231E
:0400830002812423AF
:04008400030104135D
:04008500FCA42E2386
:04008600FCB42C2377
:04008700FCC42A2368
:04008800FDC4270389
:04008900800007B735
:04008A0000F777B351
:04008B00FEF4242338
:04008C00FDC4270385
:04008D00800007B731
:04008E00FFF787935E
:04008F0000F777B34C
:04009000FEF4262331
:04009100FE8427833F
:040092000807806378
:04009300FEC427037D
:04009400003007939E
:0400950002F70C63FF
:04009600FEC427037A
:04009700007007935B
:0400980004F71A63EC
:04009900F4C1A78384
:04009A0006078C6366
:04009B00000000134E
:04009C00F4C1A78381
:04009D00FD442603F5
:04009E00FD84258335
:04009F00FDC4250374
:0400A000000780E7EE
:0400A1000000001348
:0400A2000580006F66
:0400A300F481A783BA
:0400A40004078C635E
:0400A5000000001344
:0400A600F481A783B7
:0400A700FD442603EB
:0400A800FD8425832B
:0400A900FDC425036A
:0400AA00000780E7E4
:0400AB00000000133E
:0400AC000380006F5E
:0400AD00FEC4270363
:0400AE0000F00793C4
:0400AF0002E7FA6307
:0400B000E59FF0EFE9
:0400B10002C0006F1A
:0400B200FEC4250360
:0400B300E05FF0EF2B
:0400B40000050793A9
:0400B500020790634B
:0400B600E21FF0EF66
:0400B7000180006F55
:0400B8000000001331
:0400B9000100006FD3
:0400BA00000000132F
:0400BB000080006F52
:0400BC00000000132D
:0400BD00FD84278314
:0400BE00000785139F
:0400BF0002C12083D7
:0400C0000281240392
:0400C1000301011323
:0400C2000000806753
:0400C300FD01011327
:0400C40002112623DC
:0400C500028124236D
:0400C600030104131B
:0400C70000C00793DB
:0400C800FCF42E23F3
:0400C9000080079319
:0400CA00FEF42023FD
:0400CB000030079367
:0400CC00FEF42223F9
:0400CD00FDC4270344
:0400CE00FE04278382
:0400CF0000F707B37C
:0400D000000785930D
:0400D100FE442503C1
:0400D2007FC020EFDC
:0400D300000507938A
:0400D400FEF42423EF
:0400D500FE842783FB
:0400D600FEF42623EB
:0400D700000207B765
:0400D80004078793FF
:0400D900FEC4270337
:0400DA0000E7A02378
:0400DB00000000130E
:0400DC00FFDFF06FE3
:0400DD000000029786
:0400DE00CAC282937D
:0400DF003052907398
:0400E00008800293FF
:0400E1003002B073C6
:0400E2003040107327
:0400E3003440107322
:0400E4000000419740
:0400E500E48181939E
:0400E60000010117FD
:0400E700C6810113BA
:0400E80000004317BA
:0400E900D803031322
:0400EA000000439738
:0400EB0015038393E3
:0400EC0000032023CA
:0400ED0000430313B6
:0400EE00FE736CE34E
:0400EF000C8000EF92
:0400F00000003317C2
:0400F100F38303137F
:0400F2000000339740
:0400F300F3038393FD
:0400F40000737863BA
:0400F50000032023C1
:0400F60000430313AD
:0400F700FE736CE345
:0400F800000032973B
:0400F900F18282937B
:0400FA0000003317B8
:0400FB00F1030313F7
:0400FC000000339736
:0400FD00F083839376
:0400FE000062FC633D
:0400FF000002A483D4
:040100000093A023A5
:0401010000428293A3
:0401020000438393A0
:04010300FE62E8E3CD
:0401040000003217AE
:04010500EE82021371
:040106000EC000EF38
:040107000000006F85
:04010800FE010113E0
:0401090000812E2320
:04010A0002010413D7
:04010B00FEA4262305
:04010C00FEB42423F6
:04010D00FEC42223E7
:04010E00FE84270341
:04010F00FEC4278380
:0401100002F70A6385
:040111000240006F39
:04011200FEC42703FD
:040113000047079307
:04011400FEF42623AC
:04011500FE842783BA
:040116000047869385
:04011700FED42423CB
:0401180000072703B2
:0401190000E7A02338
:04011A00FE84270335
:04011B00FE442783F4
:04011C00FCF71CE3ED
:04011D0000000013CB
:04011E0001C12403F4
:04011F0002010113C5
:0401200000008067F4
:04012100FF010113C6
:04012200001126237F
:040123000081242310
:0401240001010413BE
:04012500000147B7D7
:04012600A0C78613D5
:04012700000137B7E5
:040128002F87859305
:04012900000147B7D3
:04012A00A0C78513D2
:04012B00F75FF0EF9B
:04012C00000107B710
:04012D0030C786133E
:04012E00000107B70E
:04012F0002078593AB
:04013000000107B70C
:040131000207851329
:04013200F59FF0EF56
:04013300000137B7D9
:040134002F87861378
:04013500000137B7D7
:040136002EC78593B8
:04013700000137B7D5
:040138002EC7851336
:04013900F3DFF0EF11
:04013A00114000EF81
:04013B001EC000EFF3
:04013C0000000013AC
:04013D0000C120835A
:04013E000081240315
:04013F0001010113A6
:0401400000008067D4
:04014100FE010113A7
:0401420000112E2357
:0401430000812C23E8
:04014400020104139D
:04014500000005139E
:0401460004C000EF02
:0401470000000013A1
:0401480007C000EFFD
:040149000F4000EF74
:04014A00000107B7F2
:04014B00678785132A
:04014C00740000EF4C
:04014D00F501A7030E
:04014E00F541A6834E
:04014F00F581A7830C
:04015000000786130B
:04015100000685938C
:04015200000705138A
:04015300DC1FF0EFCE
:04015400FEA42623BC
:04015500001005137E
:04015600074010EF5F
:04015700FEC42503BA
:04015800724000EF02
:04015900FE0101138F
:04015A0000112E233F
:04015B0000812C23D0
:04015C000201041385
:04015D00FEA42623B3
:04015E00368000EFF8
:04015F000080079382
:040160003007A07351
:040161000000001387
:040162000000001386
:0401630001C1208333
:0401640001812403EE
:04016500020101137F
:0401660000008067AE
:04016700FE01011381
:0401680000112E2331
:0401690000812C23C2
:04016A000201041377
:04016B003E80079338
:04016C00FEF4262354
:04016D00F601A7836D
:04016E00000798638B
:04016F00FEC42703A0
:04017000F6E1A023F1
:040171000080006F9B
:040172000000001376
:04017300000117B7B9
:04017400B487879332
:04017500FEF424234D
:04017600FE842703D9
:04017700F4E1A623E6
:040178000000001370
:04017900610000EF32
:04017A00000000136E
:04017B0001C120831B
:04017C0001812403D6
:04017D000201011367
:04017E000000806796
:04017F00FF01011368
:0401800000812623B1
:040181000101041361
:040182000000001366
:0401830000C1240390
:040184000101011361
:04018500000080678F
:04018600FE01011362
:0401870000112E2312
:0401880000812C23A3
:040189000201041358
:04018A00000137B782
:04018B002E878793A1
:04018C00FEF4262334
:04018D0001C0006F3E
:04018E00FEC4278301
:04018F000007A7833B
:04019000000780E7FD
:04019100FEC42783FE
:040192000047879308
:04019300FEF426232D
:04019400FEC427037B
:04019500000137B777
:040196002EC7879356
:04019700FCF76EE320
:040198000000001350
:04019900000000134F
:04019A0001C12083FC
:04019B0001812403B7
:04019C000201011348
:04019D000000806777
:04019E00FE0101134A
:04019F0000112E23FA
:0401A00000812C238B
:0401A1000201041340
:0401A200000137B76A
:0401A3002E87879389
:0401A400FEF426231C
:0401A50001C0006F26
:0401A600FEC42783E9
:0401A7000007A78323
:0401A800000780E7E5
:0401A900FEC42783E6
:0401AA00FFC7879371
:0401AB00FEF4262315
:0401AC00FEC4270363
:0401AD00000137B75F
:0401AE002EC787933E
:0401AF00FCF77EE3F8
:0401B0000000001338
:0401B1000000001337
:0401B20001C12083E4
:0401B300018124039F
:0401B4000201011330
:0401B500000080675F
:0401B600FF01011331
:0401B700008126237A
:0401B800010104132A
:0401B900000000132F
:0401BA0000C1240359
:0401BB00010101132A
:0401BC000000806758
:0401BD00FD0101132C
:0401BE000281262371
:0401BF000301041321
:0401C000FCA42E234A
:0401C1000080079320
:0401C2003007B7F358
:0401C300FEF42623FD
:0401C400FEC42783CB
:0401C500FEF4202301
:0401C600FDC42783CA
:0401C700FEF42423FB
:0401C800FE84278307
:0401C9000007A78301
:0401CA00FE84270385
:0401CB0000472703BF
:0401CC0000E7A22383
:0401CD00FE84278302
:0401CE000047A783BC
:0401CF00FE84270380
:0401D00000072703FA
:0401D10000E7A02380
:0401D200FE842783FD
:0401D300FE8427037C
:0401D40000E7A2237B
:0401D500FE842783FA
:0401D600FE84270379
:0401D70000E7A0237A
:0401D8000000001310
:0401D900FE04278376
:0401DA00FEF42223EA
:0401DB00FE44278334
:0401DC000087F7930E
:0401DD003007A073D4
:0401DE00000000130A
:0401DF000000001309
:0401E00002C1240331
:0401E1000301011302
:0401E2000000806732
:0401E300FE01011305
:0401E40000112E23B5
:0401E50000812C2346
:0401E60001212A23A6
:0401E7000131282397
:0401E80002010413F9
:0401E900000147B713
:0401EA009D878793D3
:0401EB000007A783DF
:0401EC00FEF42223D8
:0401ED00F681A703ED
:0401EE00F6C1A7832C
:0401EF0000100513E4
:0401F0000000059373
:0401F10000A706332A
:0401F20000060813E8
:0401F30000E83833B5
:0401F40000B786B317
:0401F50000D807B374
:0401F60000078693E5
:0401F70000060713E4
:0401F80000068793E3
:0401F900F6E1A42364
:0401FA00F6F1A62351
:0401FB000C40006F45
:0401FC00FE44278313
:0401FD000007A783CD
:0401FE00FEF42423C4
:0401FF00FE44278310
:040200000087A603CA
:0402010000C7A68309
:04020200F681A703D7
:04020300F6C1A78316
:040204000006851358
:0402050000078593D6
:0402060008A5E863FC
:040207000006851355
:0402080000078593D3
:0402090000B51863C1
:04020A000006069351
:04020B00000707934E
:04020C0006D7EC63C2
:04020D00FE44278301
:04020E000107A783BA
:04020F00FE4427037F
:040210000147270378
:0402110000070513CA
:04021200000780E77A
:04021300FEA42623FC
:04021400FEC427837A
:0402150000079863E3
:04021600FE4425037A
:04021700E99FF0EF7C
:040218000480006FEF
:04021900FE442783F5
:04021A000087A703AF
:04021B0000C7A783EE
:04021C00FEC4268373
:04021D00000689133B
:04021E000000099340
:04021F00012706337A
:04022000000605933C
:0402210000E5B5B38C
:04022200013786B367
:0402230000D587B3C8
:0402240000078693B6
:0402250000060713B5
:0402260000068793B4
:04022700FE442683E8
:0402280000E6A42325
:0402290000F6A62312
:04022A00FE842783A4
:04022B00FEF4222398
:04022C00FE44270362
:04022D00000147B7CE
:04022E009D8787938E
:04022F00F2F71AE3E5
:0402300000000013B7
:0402310000000013B6
:0402320001C1208363
:04023300018124031E
:040234000141290358
:040235000101298317
:0402360002010113AD
:0402370000008067DC
:04023800FF010113AE
:0402390000812623F7
:04023A0001010413A7
:04023B00FFF0079336
:04023C003047B07324
:04023D0000300793F3
:04023E003057B07312
:04023F0000000013A8
:0402400000C12403D2
:0402410001010113A3
:0402420000008067D1
:04024300FF010113A3
:04024400001126235C
:0402450000812423ED
:04024600010104139B
:040247000A4000EF7A
:040248000005071393
:040249000005879392
:04024A00F6E1A8230E
:04024B00F6F1AA23FB
:04024C000000079314
:04024D00000785130E
:04024E0000C1208348
:04024F000081240303
:040250000101011394
:0402510000008067C2
:04025200FF01011394
:04025300001126234D
:0402540000812423DE
:04025500010104138C
:04025600068000EF2F
:040257000005061385
:040258000005869384
:04025900F701A50301
:04025A00F741A58340
:04025B0040A607337F
:04025C00000708137C
:04025D00010638332B
:04025E0040B687B36C
:04025F00410786B31A
:04026000000687937A
:04026100000705137A
:040262000007859379
:0402630000C1208333
:0402640000812403EE
:04026500010101137F
:0402660000008067AD
:04026700FF0101137F
:0402680000812623C8
:040269000101041378
:04026A0002FAF7B7E6
:04026B000807879366
:04026C0000078513EF
:04026D0000C12403A5
:04026E000101011376
:04026F0000008067A4
:04027000FE01011377
:0402710000812E23B7
:04027200020104136E
:04027300000203374B
:04027400004303132D
:04027500000323035C
:04027600FE642423DB
:040277000002033747
:040278000003230359
:04027900FE642623D6
:04027A000002033744
:04027B000043031326
:04027C000003230355
:04027D00FE842E03CA
:04027E00FC6E1AE315
:04027F00FE842303D3
:04028000000308135C
:0402810000000893DE
:0402820000081793C6
:04028300000007135D
:04028400FEC4280389
:040285000008061354
:0402860000000693DB
:0402870000C7653314
:0402880000D7E5B303
:040289000005071352
:04028A000005879351
:04028B000007051350
:04028C00000785934F
:04028D0001C1240384
:04028E000201011355
:04028F000000806784
:04029000FD01011358
:04029100028126239D
:04029200030104134D
:04029300FCA42C2378
:04029400FCB42E2365
:04029500F14026F31B
:04029600FED4262349
:04029700FEC4260378
:04029800000046B765
:040299000016869332
:04029A0000D606B3D1
:04029B000036969300
:04029C00FED4242345
:04029D00FE84268332
:04029E0000468693FD
:04029F00FFF0061353
:0402A00000C6A023D1
:0402A100FD842603AF
:0402A200FE8426832D
:0402A30000C6A023CE
:0402A400FDC42683EC
:0402A5000006D71365
:0402A60000000793BA
:0402A700FE84268328
:0402A80000468693F3
:0402A90000070793B0
:0402AA0000F6A02397
:0402AB00000000133C
:0402AC0002C1240364
:0402AD000301011335
:0402AE000000806765
:0402AF00FE01011338
:0402B00000812E2378
:0402B100020104132F
:0402B200F140237381
:0402B300FE6426239C
:0402B400FEC42E0353
:0402B50000004337CB
:0402B600001303131B
:0402B700006E03339F
:0402B80000331313E9
:0402B900FE6420239C
:0402BA00FE04230318
:0402BB000003230316
:0402BC00FE64222397
:0402BD00FE04230315
:0402BE0000430313E3
:0402BF000003230312
:0402C000FE64242391
:0402C100FE84230391
:0402C200000308131A
:0402C300000008939C
:0402C4000008179384
:0402C500000007131B
:0402C600FE442803C7
:0402C7000008061312
:0402C8000000069399
:0402C90000C76533D2
:0402CA0000D7E5B3C1
:0402CB000005071310
:0402CC00000587930F
:0402CD00000705130E
:0402CE00000785930D
:0402CF0001C1240342
:0402D0000201011313
:0402D1000000806742
:0402D200FC01011317
:0402D30002112E23C3
:0402D40002812C2354
:0402D5000401041309
:0402D600FCA426233B
:0402D700FCB424232C
:0402D800FCC422231D
:0402D900E5DFF0EF7E
:0402DA00FEA4242337
:0402DB00FEB4262324
:0402DC00FE84270372
:0402DD00FEC42783B1
:0402DE000000C53720
:0402DF0035050513C9
:0402E0000000059382
:0402E10000A7063339
:0402E20000060813F7
:0402E30000E83833C4
:0402E40000B786B326
:0402E50000D807B383
:0402E60000078693F4
:0402E70000060713F3
:0402E80000068793F2
:0402E90000070513F2
:0402EA0000078593F1
:0402EB00E95FF0EFE8
:0402EC0000800793F4
:0402ED003007B7F32C
:0402EE00FEF42223D5
:0402EF00FE4427831F
:0402F000FCF42E23C9
:0402F100BC9FF0EFCF
:0402F200FDC427839D
:0402F300FEF42023D2
:0402F400FE0427835A
:0402F5000087F793F4
:0402F6003007A073BA
:0402F70000000013F0
:0402F80000000013EF
:0402F90003C120839A
:0402FA000381240355
:0402FB0004010113E6
:0402FC000000806717
:0402FD00FE010113EA
:0402FE0000112E239A
:0402FF0000812C232B
:0403000002010413DF
:04030100DBDFF0EF5F
:04030200FEA424230E
:04030300FEB42623FB
:04030400FE84270349
:04030500FEC4278388
:040306000000C537F7
:0403070035050513A0
:040308000000059359
:0403090000A7063310
:04030A0000060813CE
:04030B0000E838339B
:04030C0000B786B3FD
:04030D0000D807B35A
:04030E0000078693CB
:04030F0000060713CA
:0403100000068793C9
:0403110000070513C9
:0403120000078593C8
:04031300DF5FF0EFC9
:040314000800079343
:040315003047A0735A
:0403160000000013D0
:0403170000000013CF
:0403180001C120837C
:040319000181240337
:04031A0002010113C8
:04031B0000008067F7
:04031C000005059340
:04031D000000069343
:04031E0000000613C2
:04031F0000000513C2
:040320002390006FB7
:04032100FF010113C4
:04032200000005933F
:04032300008124230E
:04032400001126237B
:0403250000050413B8
:04032600305000EF64
:04032700F781A78330
:0403280000078463E3
:04032900000780E762
:04032A0000040513B3
:04032B00128020EF2D
:04032C000000261790
:04032D0064860613C9
:04032E00000025970F
:04032F008605859327
:04033000000025178D
:0403310064850513C7
:040332004680006F92
:0403330000452583D9
:04033400FF010113B1
:0403350000812423FC
:040336000011262369
:0403370003018793A4
:0403380000050413A5
:0403390000F58463E4
:04033A00031010EFAD
:04033B000084258392
:04033C000981879319
:04033D0000F58663DE
:04033E00000405139F
:04033F0001D010EFEA
:0403400000C425834D
:04034100100187938D
:0403420000F58C63D3
:04034300000405139A
:04034400008124030D
:0403450000C1208350
:04034600010101139D
:040347007FC0106FF4
:0403480000C120834D
:040349000081240308
:04034A000101011399
:04034B0000008067C7
:04034C000645A78338
:04034D000017F7930B
:04034E0000079863A9
:04034F0000C5D7838B
:040350002007F793F8
:0403510000078663B8
:04035200000005138F
:0403530000008067BF
:040354000585A50373
:04035500FF01011390
:040356000011262349
:04035700055000EF5E
:0403580000C120833D
:040359000000051388
:04035A000101011389
:04035B0000008067B7
:04035C000645A78328
:04035D000017F793FB
:04035E000007986399
:04035F0000C5D7837B
:040360002007F793E8
:0403610000078663A8
:04036200000005137F
:0403630000008067AF
:040364000585A50363
:04036500FF01011380
:040366000011262339
:0403670002D000EFD1
:0403680000C120832D
:040369000000051378
:04036A000101011379
:04036B0000008067A7
:04036C00FE0101137A
:04036D0000000797EE
:04036E00EFC78793BB
:04036F0000112E2328
:0403700000812C23B9
:0403710000912A23AA
:0403720003018413EC
:040373000121282319
:04037400013126230A
:0403750001412423FB
:0403760000800613EA
:0403770000000593EA
:04037800F6F1AC23CB
:0403790008C185131F
:04037A0000400793A5
:04037B0000F4262341
:04037C000004202336
:04037D000004222333
:04037E000004242330
:04037F00060422232B
:04038000000428232A
:0403810000042A2327
:0403820000042C2324
:040383007D0000EF0A
:0403840000000A1754
:040385003D4A0A13D0
:0403860000000997D3
:04038700430989930A
:040388000000091751
:040389004B09091300
:04038A0000000497D4
:04038B005204849301
:04038C00088185134C
:04038D0003442023E2
:04038E0003342223EF
:04038F0003242423FC
:04039000029426238A
:0403910000842E2393
:04039200758000EF83
:04039300000107B7A7
:0403940000878793C4
:0403950000800613CB
:0403960000000593CB
:040397000F4185137A
:0403980006F42A231A
:04039900060424230F
:04039A00060426230C
:04039B000604282309
:04039C000C04262304
:04039D0006042C2303
:04039E0006042E2300
:04039F00080420230B
:0403A00075C000EF35
:0403A10009818793B4
:0403A2000F018513AF
:0403A30008F4222315
:0403A40009442423C1
:0403A50009342623CE
:0403A60009242823DB
:0403A70008942A2369
:0403A800700000EFF2
:0403A900000207B790
:0403AA00012787930D
:0403AB0000800613B5
:0403AC0000000593B5
:0403AD0015C18513DE
:0403AE000CF42E23FA
:0403AF000C042823EF
:0403B0000C042A23EC
:0403B1000C042C23E9
:0403B20012042A23E4
:0403B3000E042023F1
:0403B4000E042223EE
:0403B5000E042423EB
:0403B600704000EFA4
:0403B7001001879317
:0403B8000F442823A3
:0403B9000F342A23B0
:0403BA000F242C23BD
:0403BB000E942E234B
:0403BC000EF42623F2
:0403BD000181240393
:0403BE0001C12083D6
:0403BF000141248351
:0403C000010129030B
:0403C10000C12983CB
:0403C20000812A0389
:0403C3001581851308
:0403C400020101131E
:0403C50068C0006F9D
:0403C600FE01011320
:0403C70001312623B7
:0403C8000005099390
:0403C900F9C18513DE
:0403CA0000112E23CD
:0403CB0000812C235E
:0403CC0000912A234F
:0403CD0001212823BF
:0403CE00678000EF55
:0403CF00F781A78388
:0403D000100780632F
:0403D10000002917E8
:0403D2003B49091387
:0403D300FFF00493A0
:0403D4000049278332
:0403D5000089240374
:0403D600FFF7879313
:0403D7000007D863E0
:0403D8000900006FA9
:0403D900068404137F
:0403DA000897846399
:0403DB0000C4170340
:0403DC00FFF787930D
:0403DD00FE0718E31C
:0403DE00FFFF07B75F
:0403DF0000178793E9
:0403E00000F42623DC
:0403E1000584051377
:0403E20006042223C8
:0403E300614000EF86
:0403E400F9C18513C3
:0403E500634000EF82
:0403E600008006137A
:0403E70000042023CB
:0403E80000042423C6
:0403E90000042223C7
:0403EA0000042823C0
:0403EB0000042A23BD
:0403EC0000042C23BA
:0403ED000000059374
:0403EE0005C405132A
:0403EF00620000EFB9
:0403F00002042823B8
:0403F10002042A23B5
:0403F20004042223BA
:0403F30004042423B7
:0403F40001C12083A0
:0403F50000040513E8
:0403F600018124035A
:0403F7000141248319
:0403F80001012903D3
:0403F90000C1298393
:0403FA0002010113E8
:0403FB000000806717
:0403FC0000092403CD
:0403FD00000406638F
:0403FE0000040913DB
:0403FF00F55FF06F47
:040400001AC0059386
:040401000009851356
:04040200539000EF24
:0404030000050413D9
:0404040002050C637E
:0404050000C5051316
:040406000040079318
:0404070000042023AA
:0404080000F42223B7
:0404090000A4242304
:04040A001A000613BB
:04040B000000059355
:04040C005AC000EFE3
:04040D00008920231F
:04040E0000040913CA
:04040F00F15FF06F3A
:04041000D71FF0EF13
:04041100F01FF06F79
:04041200000920239A
:04041300F9C1851393
:04041400578000EF1E
:0404150000C0079389
:0404160000F9A02326
:04041700F75FF06F2C
:04041800FF010113CC
:040419000081242317
:04041A0000050413C2
:04041B00F9C185138B
:04041C000011262382
:04041D0053C000EFD9
:04041E0003442783E9
:04041F0000079C63D3
:04042000000007973A
:04042100C4C7879332
:0404220002F42A2393
:04042300F781A78333
:0404240000078C63DE
:04042500008124032B
:0404260000C120836E
:04042700F9C185137F
:0404280001010113BA
:040429005240006FCE
:04042A00D09FF0EF80
:04042B000081240325
:04042C0000C1208368
:04042D00F9C1851379
:04042E0001010113B4
:04042F0050C0006F4A
:04043000F9C1851376
:040431004EC0006F4A
:04043200F9C1851374
:040433004FC0006F47
:04043400FF010113B0
:04043500F9C1851371
:040436000011262368
:040437004D4000EF45
:0404380000C120835C
:040439000000261782
:04043A00214606133E
:04043B000000059721
:04043C00C44585939B
:04043D0000000513A3
:04043E0001010113A4
:04043F000340006F07
:04044000FF010113A4
:04044100000026177A
:040442001F46061338
:040443000000059719
:04044400C645859391
:04044500000005139B
:040446000011262358
:04044700014000EF81
:0404480000C120834C
:04044900F9C185135D
:04044A000101011398
:04044B0049C0006F35
:04044C00FD0101139A
:04044D000321202344
:04044E0001312E2327
:04044F0001412C2318
:0404500001512A2309
:0404510001612823FA
:0404520001712623EB
:040453000211262349
:0404540002812423DA
:0404550002912223CB
:0404560000050B137F
:0404570000058B937E
:0404580000060A93FD
:0404590000000A1382
:04045A0000100993F2
:04045B00FFF0091392
:04045C00004AA4832B
:04045D00008AA4036A
:04045E00FFF4849390
:04045F000204C86368
:0404600000C45783FA
:0404610000F9FE633D
:0404620000E4178318
:0404630000040593F9
:04046400000B051371
:040465000127866382
:04046600000B80E720
:0404670000AA6A334A
:04046800FFF4849386
:0404690006840413EE
:04046A00FD249CE3EE
:04046B00000AAA8356
:04046C00FC0A90E313
:04046D0002C1208325
:04046E0002812403E0
:04046F00024124839F
:040470000201290359
:0404710001C1298319
:0404720001412A8397
:0404730001012B0355
:0404740000C12B8315
:04047500000A051361
:0404760001812A03D3
:040477000301011369
:040478000000806799
:04047900FF0101136B
:04047A0000812423B6
:04047B0000058413E1
:04047C0000E595837F
:04047D000011262321
:04047E002EC000EF9D
:04047F0002054063CF
:0404800005042783C5
:0404810000C1208313
:0404820000A787B395
:0404830004F4282332
:0404840000812403CC
:04048500010101135D
:04048600000080678B
:0404870000C45783D3
:04048800FFFFF73744
:04048900FFF707135F
:04048A0000E7F7B3DD
:04048B0000C1208309
:04048C0000F416233F
:04048D0000812403C3
:04048E000101011354
:04048F000000806782
:040490000000051350
:040491000000806780
:0404920000C5978387
:04049300FE01011352
:0404940000812C2394
:0404950000912A2385
:0404960001212823F5
:0404970001312623E6
:0404980000112E23FE
:040499001007F7133E
:04049A0000058413C2
:04049B0000050493C1
:04049C00000609133A
:04049D000006899339
:04049E0004071063DC
:04049F00FFFFF7372D
:0404A000FFF7071348
:0404A10000E7F7B3C6
:0404A20000E41583DA
:0404A30000F4162328
:0404A40001812403AB
:0404A50001C12083EE
:0404A6000009869330
:0404A700000906132F
:0404A80000C12983E3
:0404A9000101290321
:0404AA0000048513B2
:0404AB000141248364
:0404AC000201011335
:0404AD0028C0006FF4
:0404AE0000E595834D
:0404AF000020069390
:0404B000000006132F
:0404B1001C4000EFFC
:0404B20000C41783E8
:0404B300FB1FF06FCC
:0404B400FF01011330
:0404B500008124237B
:0404B60000058413A6
:0404B70000E5958344
:0404B80000112623E6
:0404B9001A4000EFF6
:0404BA00FFF00793B5
:0404BB0002F50863DB
:0404BC0000C457839E
:0404BD0000001737ED
:0404BE0000C12083D6
:0404BF0000E7E7B3B8
:0404C0000107979306
:0404C1004107D79385
:0404C20004A4282343
:0404C30000F4162308
:0404C400008124038C
:0404C500010101131D
:0404C600000080674B
:0404C70000C4578393
:0404C800FFFFF73704
:0404C900FFF707131F
:0404CA0000E7F7B39D
:0404CB0001079793FB
:0404CC004107D7937A
:0404CD0000C12083C7
:0404CE0000F41623FD
:0404CF000081240381
:0404D0000101011312
:0404D1000000806740
:0404D20000E5958329
:0404D3000040006F76
:0404D400FF01011310
:0404D500008124235B
:0404D6000005041306
:0404D7000005851384
:0404D800F601AE2358
:0404D90000112623C5
:0404DA00041010EF0B
:0404DB00FFF0079394
:0404DC0000F50A63BA
:0404DD0000C12083B7
:0404DE000081240372
:0404DF000101011303
:0404E0000000806731
:0404E100F7C1A78335
:0404E200FE0786E3A8
:0404E30000C12083B1
:0404E40000F42023DD
:0404E500008124036B
:0404E60001010113FC
:0404E700000080672A
:0404E8000000279752
:0404E9006407A7837A
:0404EA000CA78E636A
:0404EB00044525831C
:0404EC00FE010113F9
:0404ED0000912A232D
:0404EE0000112E23A8
:0404EF0000812C2339
:0404F000000504936C
:0404F1000405886313
:0404F2000121282399
:0404F300013126238A
:0404F40000000913E8
:0404F500080009935F
:0404F600012587B3A2
:0404F7000007A40353
:0404F80000040E638B
:0404F9000004059363
:0404FA0000042403D3
:0404FB000004851361
:0404FC0064C000EFE9
:0404FD00FE0418E3FE
:0404FE000444A5838A
:0404FF000049091394
:04050000FD391CE3C2
:04050100000485135A
:04050200634000EF63
:0405030001012903C6
:0405040000C1298386
:040505000384A58343
:040506000005866303
:040507000004851354
:0405080061C000EFDF
:040509000404A4033F
:04050A0000040C637A
:04050B000004059350
:04050C0000042403C0
:04050D00000485134E
:04050E00604000EF5A
:04050F00FE0418E3EB
:0405100004C4A583F7
:0405110000058663F8
:040512000004851349
:040513005F0000EF96
:040514000344A78372
:0405150000078E63EA
:040516000181240338
:0405170001C120837B
:040518000004851343
:0405190001412483F5
:04051A0002010113C6
:04051B0000078067EE
:04051C0001C1208376
:04051D000181240331
:04051E0001412483F0
:04051F0002010113C1
:0405200000008067F0
:0405210000008067EF
:04052200FF010113C1
:040523000005871335
:04052400008124230B
:040525000006059334
:0405260000050413B5
:040527000006861331
:0405280000070513B0
:04052900F601AE2306
:04052A000011262373
:04052B001A9010EF23
:04052C00FFF0079342
:04052D0000F50A6368
:04052E0000C1208365
:04052F000081240320
:0405300001010113B1
:0405310000008067DF
:04053200F7C1A783E3
:04053300FE0786E356
:0405340000C120835F
:0405350000F420238B
:040536000081240319
:0405370001010113AA
:0405380000008067D8
:04053900FF010113AA
:04053A00000587131E
:04053B0000812423F4
:04053C00000605931D
:04053D00000504139E
:04053E00000686131A
:04053F000007051399
:04054000F601AE23EF
:04054100001126235C
:0405420026D010EFC0
:04054300FFF007932B
:0405440000F50A6351
:0405450000C120834E
:040546000081240309
:04054700010101139A
:0405480000008067C8
:04054900F7C1A783CC
:04054A00FE0786E33F
:04054B0000C1208348
:04054C0000F4202374
:04054D000081240302
:04054E000101011393
:04054F0000008067C1
:04055000FF01011393
:040551000005871307
:0405520000812423DD
:040553000006059306
:040554000005041387
:040555000006861303
:040556000007051382
:04055700F601AE23D8
:040558000011262345
:04055900481010EF47
:04055A00FFF0079314
:04055B0000F50A633A
:04055C0000C1208337
:04055D0000812403F2
:04055E000101011383
:04055F0000008067B1
:04056000F7C1A783B5
:04056100FE0786E328
:0405620000C1208331
:0405630000F420235D
:0405640000812403EB
:04056500010101137C
:0405660000008067AA
:0405670000008067A9
:0405680000008067A8
:0405690000008067A7
:04056A0000008067A6
:04056B0000008067A5
:04056C0000008067A4
:04056D000010051362
:04056E0000008067A2
:04056F000010051360
:0405700000008067A0
:04057100000080679F
:04057200000080679E
:0405730000050593E7
:040574000000251747
:040575004105250314
:04057600D79FF06FAC
:0405770000F003137A
:040578000005071360
:0405790002C37E63D8
:04057A0000F777937C
:04057B000A07906378
:04057C000805926379
:04057D00FF0676936C
:04057E0000F67613FA
:04057F0000E686B359
:0405800000B720237D
:0405810000B722237A
:0405820000B7242377
:0405830000B7262374
:040584000107071351
:04058500FED766E354
:0405860000061463F4
:040587000000806789
:0405880040C306B3B3
:04058900002696931F
:04058A0000000297D4
:04058B00005686B3DD
:04058C0000C68067BE
:04058D0000B7072389
:04058E0000B706A309
:04058F0000B7062388
:0405900000B705A308
:0405910000B7052387
:0405920000B704A307
:0405930000B7042386
:0405940000B703A306
:0405950000B7032385
:0405960000B702A305
:0405970000B7022384
:0405980000B701A304
:0405990000B7012383
:04059A0000B700A303
:04059B0000B7002382
:04059C000000806774
:04059D000FF5F593CE
:04059E0000859693AB
:04059F0000D5E5B3EB
:0405A0000105969328
:0405A10000D5E5B3E9
:0405A200F6DFF06F21
:0405A3000027969304
:0405A40000000297BA
:0405A500005686B3C3
:0405A600000082933C
:0405A700FA0680E7E9
:0405A800000280933A
:0405A900FF0787932E
:0405AA0040F70733DC
:0405AB0000F606331D
:0405AC00F6C378E337
:0405AD00F3DFF06F19
:0405AE00FE01011336
:0405AF0001212823DB
:0405B00080C189136A
:0405B10000812C2376
:0405B2000005041329
:0405B3000009250313
:0405B40000912A2365
:0405B50001312623C7
:0405B60001412423B8
:0405B70000112E23DE
:0405B8000005849323
:0405B90000060A131B
:0405BA00000689931B
:0405BB00EC5FF0EF12
:0405BC00FA018713A6
:0405BD000007278389
:0405BE000807866341
:0405BF000047A70347
:0405C00001F00593AE
:0405C1000009250305
:0405C20008E5C46321
:0405C3000027159365
:0405C40002041E63AC
:0405C5000017071301
:0405C60000E7A22385
:0405C70000B787B33F
:0405C8000097A423D1
:0405C900EA5FF0EF06
:0405CA000000051315
:0405CB0001C12083C7
:0405CC000181240382
:0405CD000141248341
:0405CE0001012903FB
:0405CF0000C12983BB
:0405D00000812A0379
:0405D100020101130F
:0405D200000080673E
:0405D30000B78833B2
:0405D400094824238B
:0405D5001887A6835A
:0405D60000100613F8
:0405D70000E61633F1
:0405D80000C6E6B3C0
:0405D90018D7A42368
:0405DA00113824238D
:0405DB000020069363
:0405DC00FAD412E358
:0405DD0018C7A68312
:0405DE0000C6E6B3BA
:0405DF0018D7A62360
:0405E000F95FF06F60
:0405E1001681879365
:0405E20000F72023DB
:0405E300F71FF06F9F
:0405E400E39FF0EFB2
:0405E500FFF005130B
:0405E600F95FF06F5A
:0405E700FD010113FE
:0405E8000171262354
:0405E90080C18B93AF
:0405EA000161282360
:0405EB0000050B13E9
:0405EC00000BA50358
:0405ED0001412C2379
:0405EE00FA018A1371
:0405EF0003212023A1
:0405F000018124233E
:0405F10002112623AA
:0405F20000058C1361
:0405F300DE5FF0EFE8
:0405F400000A2903CD
:0405F50008090C6382
:0405F60001312E237E
:0405F70001512A2361
:0405F8000281242335
:0405F9000291222326
:0405FA000191222326
:0405FB00FFF0099371
:0405FC0000100A934E
:0405FD00004924830A
:0405FE00FFF484136F
:0405FF0004044E633F
:0406000000249493AB
:04060100009904B3A5
:04060200080C146369
:040603000049278300
:040604000044A68385
:04060500FFF78793E1
:040606000C8780637A
:040607000004A22326
:0406080002068663FD
:0406090018892783A2
:04060A00008A973398
:04060B0000492C83F3
:04060C0000F777B3C9
:04060D0006079A63DF
:04060E00000680E77B
:04060F000049270374
:04061000000A278332
:0406110009971463CE
:0406120009279263BF
:04061300FFF40413D9
:04061400FFC4849308
:04061500FB341AE3B5
:040616000281240336
:0406170002412483F5
:0406180001C1298370
:0406190001412A83EE
:04061A0000412C83EC
:04061B00000BA50328
:04061C0002C1208374
:04061D0002012903AA
:04061E0001812A0329
:04061F0001012B03A7
:0406200000C12B8367
:0406210000812C0325
:0406220003010113BC
:04062300D3DFF06FC2
:040624001044A78354
:04062500F7878CE3E4
:04062600FFF40413C6
:04062700FFC48493F5
:04062800FF3418E3A0
:04062900FB5FF06F14
:04062A0018C9278341
:04062B000844A58357
:04062C0000F7773329
:04062D000207166347
:04062E00000B0513A5
:04062F00000680E75A
:040630000049270353
:04063100000A278311
:04063200F99700E351
:04063300F80786E35B
:04063400000789131F
:04063500F21FF06F51
:0406360000892223F2
:04063700F45FF06F0D
:040638000005851321
:04063900000680E750
:04063A00F55FF06F09
:04063B000000079321
:04063C0000078863C8
:04063D00000015178D
:04063E001F4505133C
:04063F00B74FF06F52
:0406400000008067CF
:04064100FE010113A2
:0406420000812C23E4
:0406430000912A23D5
:040644000121282345
:040645000131262336
:040646000141242327
:04064700000589938E
:0406480000112E234C
:04064900000509138C
:04064A0000002A176B
:04064B00B00A0A13D4
:04064C003D9000EFEE
:04064D00008A2703F5
:04064E00000017B7DA
:04064F00FEF7879398
:0406500000472483B8
:040651000000173757
:04065200FFC4F4935A
:0406530000F48433F8
:0406540041340433F6
:0406550000C4541376
:04065600FFF4041396
:0406570000C41413B4
:0406580000E44E6309
:040659000000059305
:04065A00000905137B
:04065B0012C010EFCA
:04065C00008A278366
:04065D00009787B3C8
:04065E0002F5086336
:04065F000009051376
:04066000391000EF5E
:0406610001C1208330
:0406620001812403EB
:0406630001412483AA
:040664000101290364
:0406650000C1298324
:0406660000812A03E2
:040667000000051377
:040668000201011377
:0406690000008067A6
:04066A00408005B314
:04066B00000905136A
:04066C000E8010EFFD
:04066D00FFF0079300
:04066E0004F5086324
:04066F002F8187133D
:0406700000072783D5
:04067100008A268352
:04067200408484B389
:040673000014E493F8
:04067400408787B381
:040675000009051360
:040676000096A22325
:0406770000F7202345
:04067800331000EF4C
:0406790001C1208318
:04067A0001812403D3
:04067B000141248392
:04067C00010129034C
:04067D0000C129830C
:04067E0000812A03CA
:04067F00001005134F
:04068000020101135F
:04068100000080678E
:0406820000000593DC
:040683000009051352
:04068400088010EFEB
:04068500008A2703BD
:0406860000F00693E7
:0406870040E507B390
:04068800F4F6DEE3C3
:040689008101A683C2
:04068A0040D505331F
:04068B000017E793DA
:04068C002EA1AC23CC
:04068D0000F722232D
:04068E00F45FF06FB6
:04068F001805826365
:04069000FF01011352
:04069100008124239D
:04069200009122238E
:0406930000058413C7
:0406940000050493C6
:040695000011262307
:040696002B1000EF36
:04069700FFC42583F4
:04069800FF840713C1
:040699000000251721
:04069A009C45051363
:04069B00FFE5F793ED
:04069C0000F706332A
:04069D00004626836A
:04069E0000852803A8
:04069F00FFC6F69309
:0406A0001AC802630F
:0406A10000D622233A
:0406A2000015F593B7
:0406A30000D6083342
:0406A4000A05906350
:0406A500FF842303A8
:0406A6000048258360
:0406A7000000289790
:0406A8009948889352
:0406A900406707336C
:0406AA00008728039A
:0406AB00006787B3AA
:0406AC000015F593AD
:0406AD0015180263B7
:0406AE0000C723035B
:0406AF000068262396
:0406B00001032423FB
:0406B1001A0586633D
:0406B2000017E693B4
:0406B30000D7222327
:0406B40000F6202309
:0406B5001FF0069399
:0406B60006F6EC63F5
:0406B700FF87F69330
:0406B800008686939F
:0406B9000045258350
:0406BA0000D506B3AE
:0406BB000006A6038C
:0406BC000057D813F8
:0406BD00001007938F
:0406BE00010797B3E6
:0406BF0000B7E7B3E6
:0406C000FF86859399
:0406C10000B7262335
:0406C20000C7242326
:0406C30000F52223F9
:0406C40000E6A02389
:0406C50000E6262302
:0406C6000081240388
:0406C70000C12083CB
:0406C8000004851392
:0406C9000041248345
:0406CA000101011316
:0406CB001E50006F4E
:0406CC00004825833A
:0406CD000015F5938C
:0406CE000805866332
:0406CF000017E69397
:0406D000FED42E2303
:0406D10000F62023EC
:0406D2001FF006937C
:0406D300F8F6F8E35A
:0406D4000097D69322
:0406D50000400613C8
:0406D60012D6606375
:0406D7000067D6934F
:0406D800039685936D
:0406D90003868613FB
:0406DA0000359593BF
:0406DB0000B505B3AE
:0406DC000005A683EC
:0406DD00FF8585937D
:0406DE0000D5986348
:0406DF001540006F53
:0406E0000086A68367
:0406E10000D5886355
:0406E2000046A60325
:0406E300FFC67613C5
:0406E400FEC7E8E382
:0406E50000C6A58323
:0406E60000B7262310
:0406E70000D72423F1
:0406E8000081240366
:0406E90000C12083A9
:0406EA0000E5A42360
:0406EB00000485136F
:0406EC000041248322
:0406ED0000E6A6235A
:0406EE0001010113F2
:0406EF001550006F33
:0406F000000080671F
:0406F10000D787B3F4
:0406F2000000289745
:0406F30086888893DA
:0406F40000862683D3
:0406F5000D168C63EF
:0406F60000C628030F
:0406F7000017E59370
:0406F80000F70633CE
:0406F9000106A6232D
:0406FA0000D82423DD
:0406FB0000B72223FF
:0406FC0000F62023C1
:0406FD00EE1FF06F8D
:0406FE0012059C63E2
:0406FF0000862583C9
:0407000000C6260306
:0407010000F686B3C5
:040702000016E79363
:0407030000C5A62364
:0407040000B62423F4
:0407050000F72223B4
:0407060000D70733DE
:0407070000D72023D4
:04070800EF9FF06F00
:040709000015F5934F
:04070A0000D786B3DB
:04070B0002059063F0
:04070C00FF842583BE
:04070D0040B70733B7
:04070E0000C7278376
:04070F000087260336
:0407100000B686B3F6
:0407110000F62623A5
:0407120000C7A42355
:040713000016E79352
:0407140000F72223A5
:0407150000E52423B4
:040716008141A783F3
:04071700EAF6EEE32D
:04071800FAC1A583FA
:040719000004851340
:04071A00C9DFF0EF54
:04071B00EADFF06FB2
:04071C0000D787B3C8
:04071D00F5DFF06FA5
:04071E00014006137D
:04071F0002D670632B
:040720000540061377
:0407210006D6646331
:0407220000C7D693A3
:0407230006F68593BE
:0407240006E686134C
:040725000035959373
:04072600ED5FF06F24
:0407270005C68593EB
:0407280005B6861379
:04072900003595936F
:04072A00EC5FF06F21
:04072B0000E52A2398
:04072C0000E5282399
:04072D000017E69338
:04072E000117262366
:04072F000117242367
:0407300000D72223A9
:0407310000F7073393
:0407320000F7202389
:04073300E4DFF06FA0
:040734000045280351
:0407350040265613F1
:040736000010079315
:0407370000C797B3AD
:040738000107E7B31B
:0407390000F5222382
:04073A00EB1FF06F52
:04073B00154006134C
:04073C0000D66C6314
:04073D0000F7D69358
:04073E000786859312
:04073F0007768613A0
:040740000035959358
:04074100E69FF06FD0
:040742005540061305
:0407430000D66C630D
:040744000127D69320
:0407450007D68593BB
:0407460007C6861349
:040747000035959351
:04074800E4DFF06F8B
:040749003F80059355
:04074A0007E00613AB
:04074B00E41FF06F48
:04074C000017E69319
:04074D0000D722238C
:04074E0000F620236E
:04074F00DDDFF06F8B
:04075000FD01011393
:04075100032120233D
:040752000211262347
:0407530002812423D8
:0407540002912223C9
:0407550001312E231D
:0407560000B58793D0
:040757000160071323
:04075800000509137C
:0407590008F76263D8
:04075A000100079300
:04075B0020B7E6637A
:04075C00798000EFB1
:04075D00018007937D
:04075E0000200593DF
:04075F0001000493FE
:0407600000001997E5
:040761006A89899385
:0407620000F987B360
:040763000047A403A4
:04076400FF87871371
:0407650034E40A630B
:0407660000442783A1
:0407670000C4268321
:0407680000842603E0
:04076900FFC7F7933C
:04076A0000F407B3DD
:04076B000047A70399
:04076C0000D626236A
:04076D0000C6A423FB
:04076E0000176713F6
:04076F000009051365
:0407700000E7A223D9
:0407710074C000EF61
:0407720000840513E7
:0407730002C120831C
:0407740002812403D7
:040775000241248396
:040776000201290350
:0407770001C1298310
:040778000301011365
:040779000000806795
:04077A00FF87F4936E
:04077B001807C66332
:04077C0018B4E46366
:04077D00714000EFD8
:04077E001F7007934E
:04077F004097F0634C
:040780000094D79377
:040781001807826370
:040782000040071319
:0407830034F766637E
:040784000064D793A3
:0407850003978593BE
:04078600038788134A
:040787000035961390
:0407880000001997BD
:040789006089899367
:04078A0000C98633E9
:04078B0000462403FD
:04078C00FF860613CB
:04078D000286086375
:04078E0000F005135F
:04078F000140006FB6
:0407900000C42683F8
:0407910028075E6374
:0407920000D60E631C
:0407930000068413C5
:040794000044278373
:04079500FFC7F79310
:0407960040978733CE
:04079700FEE552E346
:0407980000080593BD
:040799000109A403AB
:04079A0000001897AC
:04079B005C8888935B
:04079C0027140463B7
:04079D00004427836A
:04079E0000F00693CE
:04079F00FFC7F79306
:0407A00040978733C4
:0407A10038E6C26311
:0407A2000119AA236C
:0407A3000119A8236D
:0407A400340756635D
:0407A5001FF0071327
:0407A6000049A5035E
:0407A70024F76E6362
:0407A800FF87F713BD
:0407A90000870713AB
:0407AA0000E98733A8
:0407AB00000726839A
:0407AC000057D61309
:0407AD00001007939E
:0407AE0000C797B336
:0407AF0000F56533B9
:0407B000FF87079325
:0407B10000F4262307
:0407B20000D4242328
:0407B30000A9A223D4
:0407B4000087202377
:0407B5000086A623F1
:0407B6004025D79370
:0407B7000010061315
:0407B80000F61633FE
:0407B9000AC56A63A0
:0407BA0000A677B36B
:0407BB00020794633A
:0407BC0000161613FA
:0407BD00FFC5F593EC
:0407BE0000A677B367
:0407BF0000458593D9
:0407C00000079A6331
:0407C10000161613F5
:0407C20000A677B363
:0407C30000458593D5
:0407C400FE078AE3BF
:0407C50000F0081325
:0407C6000035931354
:0407C700006983330F
:0407C8000003051312
:0407C90000C52783BD
:0407CA0000058E1385
:0407CB0024F50863A6
:0407CC000047A70338
:0407CD00000784138A
:0407CE0000C7A78336
:0407CF00FFC77713D6
:0407D000409706B395
:0407D10024D848637D
:0407D200FE06C2E37A
:0407D30000E4073304
:0407D4000047268331
:0407D5000084260373
:0407D60000090513FE
:0407D7000016E6938F
:0407D80000D7222301
:0407D90000F62623DD
:0407DA0000C7A4238D
:0407DB005A4000EF91
:0407DC00008405137D
:0407DD00E59FF06F35
:0407DE0000C00793BD
:0407DF0000F92023DA
:0407E00000000513FD
:0407E100E49FF06F32
:0407E20020000613DA
:0407E3000400059376
:0407E40003F0081303
:0407E500E8DFF06FEA
:0407E6000089A403DF
:0407E7000161282361
:0407E800004427831F
:0407E900FFC7FB1338
:0407EA00009B6863A5
:0407EB00409B0733F5
:0407EC0000F007937F
:0407ED000EE7C063F0
:0407EE000191222330
:0407EF0081018C9365
:0407F000000CA7034F
:0407F10001412C2373
:0407F20001512A2364
:0407F3000171262347
:0407F400FAC1AA8319
:0407F500FFF0079377
:0407F60001640A335D
:0407F70001548AB36C
:0407F8003CF70A635D
:0407F900000017B72E
:0407FA0000F78793EA
:0407FB0000FA8AB3C3
:0407FC00FFFFF7B74D
:0407FD0000FAFAB351
:0407FE00000A8593D5
:0407FF0000090513D5
:04080000299000EF4C
:04080100FFF007936A
:0408020000050B934F
:0408030044F50E6347
:040804000181242327
:0408050025456263C0
:040806002F818C139F
:04080700000C258339
:0408080000BA85B3FA
:0408090000BC2023EC
:04080A00000587134B
:04080B002AAA1A6398
:04080C0001451793F8
:04080D002A079663BD
:04080E000089AB832F
:04080F00015B07B3CF
:040810000017E79353
:0408110000FBA22323
:04081200FA818713CD
:040813000007268331
:0408140000B6F463D3
:0408150000B72023E5
:04081600FA41871309
:04081700000726832D
:0408180000B6F463CF
:0408190000B72023E1
:04081A0000812C032A
:04081B00000B841337
:04081C00FFC7F79388
:04081D004097873346
:04081E003897EA63BA
:04081F0000F007934B
:0408200038E7D6637C
:0408210001812A0324
:0408220001412A83E3
:0408230000C12B8362
:0408240000412C83E0
:040825000014E79341
:0408260000F4222395
:04082700009404B382
:040828000099A4236C
:04082900001767133A
:04082A0000090513A9
:04082B0000E4A22320
:04082C00460000EF93
:04082D0002C1208361
:04082E00008405132A
:04082F00028124031B
:0408300001012B0394
:0408310002412483D9
:040832000201290393
:0408330001C1298353
:0408340003010113A8
:0408350000008067D8
:040836000049A503CD
:04083700DFDFF06FA0
:04083800008426030F
:04083900CC5FF06F31
:04083A0000C7A4034C
:04083B00002585937C
:04083C00D6878AE3EE
:04083D00CA5FF06F2F
:04083E000097D71335
:04083F0000400693DC
:0408400014E6F26365
:0408410001400693D9
:0408420032E6E46353
:0408430005C70613CC
:0408440005B706935B
:040845000036161350
:0408460000C986332C
:04084700000627037D
:04084800FF8606130E
:0408490000E618634A
:04084A002940006FD2
:04084B0000872703F8
:04084C0000E6086357
:04084D0000472683B7
:04084E00FFC6F69358
:04084F00FED7E8E305
:0408500000C72603B4
:0408510000C4262396
:0408520000E4242377
:0408530000862423D4
:0408540000872623D0
:04085500D85FF06F09
:040856000140071343
:0408570010F77863BB
:04085800054007133D
:040859002EF76463AF
:04085A0000C4D7936C
:04085B0006F7859384
:04085C0006E7881310
:04085D0000359613B9
:04085E00CA9FF06FCE
:04085F00001E0E1356
:04086000003E77934C
:0408610000850513F6
:040862001007806398
:0408630000C5278322
:04086400D9DFF06F79
:0408650000842603E2
:040866000014E59302
:0408670000B4222394
:0408680000F626234D
:0408690000C7A423FD
:04086A00009404B33F
:04086B000099AA2323
:04086C000099A82324
:04086D000016E793F7
:04086E000114A623A8
:04086F000114A423A9
:0408700000F4A223CB
:0408710000E4073365
:040872000009051361
:0408730000D7202367
:04087400340000EF5D
:0408750000840513E3
:04087600BF5FF06F01
:0408770000F407B3CF
:040878000047A7038B
:04087900000905135A
:04087A0000176713E9
:04087B0000E7A223CD
:04087C00320000EF57
:04087D0000840513DB
:04087E00BD5FF06FFB
:04087F000034D593D9
:0408800000848793D6
:04088100B7DFF06F7E
:040882000014E693E5
:0408830000D4222358
:04088400009404B325
:040885000099AA2309
:040886000099A8230A
:04088700001766935D
:040888000114A6238E
:040889000114A4238F
:04088A0000D4A223D1
:04088B0000F407B3BB
:04088C000009051347
:04088D0000E7A023BD
:04088E002D8000EFCA
:04088F0000840513C9
:04089000B8DFF06F6E
:040891000067D71312
:0408920003970613AF
:04089300038706933E
:040894000036161301
:04089500EC5FF06FB5
:0408960007340C63B4
:040897000089A4032D
:0408980000812C03AC
:04089900004427836D
:04089A00E09FF06F7C
:04089B0005C7859375
:04089C0005B7881301
:04089D000035961379
:04089E00BA9FF06F9E
:04089F000083278328
:0408A000FFF5859348
:0408A10026679E63C5
:0408A2000035F79393
:0408A300FF830313B9
:0408A400FE0796E3D2
:0408A5000049A7035C
:0408A600FFF647937F
:0408A70000E7F7B3BC
:0408A80000F9A2238E
:0408A900001616130C
:0408AA00CEC7E8E3EA
:0408AB00CE0606E38C
:0408AC0000F67733A8
:0408AD0000071A63C3
:0408AE000016161307
:0408AF0000F67733A5
:0408B000004E0E13D5
:0408B100FE070AE351
:0408B200000E05939C
:0408B300C4DFF06F3F
:0408B4002F818C13F1
:0408B500000C270309
:0408B60000EA87339A
:0408B70000EC20230E
:0408B800000CA68307
:0408B900FFF00793B2
:0408BA0018F6866343
:0408BB00414B87B373
:0408BC0000E787B317
:0408BD0000FC2023F8
:0408BE00007BFC932C
:0408BF000C0C8C632E
:0408C000419B8BB31A
:0408C100000017B765
:0408C2000087879391
:0408C300008B8B9388
:0408C400419785B320
:0408C500015B8AB396
:0408C600415585B360
:0408C70001459593BF
:0408C8000145DA13F9
:0408C900000A059389
:0408CA000009051309
:0408CB0076C000EF04
:0408CC00FFF007939F
:0408CD0018F50063B7
:0408CE004175053338
:0408CF0001450AB322
:0408D000000C2703EE
:0408D1000179A423E2
:0408D200001AE7938E
:0408D30000EA05B37F
:0408D40000BC202321
:0408D50000FBA2235F
:0408D600CF3408E330
:0408D70000F0069394
:0408D8000B66F06358
:0408D90000442703AD
:0408DA00FF4B079336
:0408DB00FF87F79309
:0408DC000017771377
:0408DD0000F7673386
:0408DE0000E42223ED
:0408DF0000500613AC
:0408E00000F40733E6
:0408E10000C7222307
:0408E20000C7242304
:0408E30000F6E663D2
:0408E400004BA7839B
:0408E500CB5FF06F86
:0408E60000840593F2
:0408E70000090513EC
:0408E800E9CFF0EF75
:0408E9000089AB8354
:0408EA00000C258356
:0408EB00004BA78394
:0408EC00C99FF06F41
:0408ED00010A8A93DF
:0408EE00C41FF06FC4
:0408EF004026D69336
:0408F000001007935A
:0408F10000D797B3E2
:0408F20000F5653375
:0408F30000A9A22393
:0408F400D75FF06F6B
:0408F500015B85B36B
:0408F60040B005B356
:0408F700014595938F
:0408F8000145DA13C9
:0408F900000A059359
:0408FA0000090513D9
:0408FB006AC000EFE0
:0408FC00FFF007936F
:0408FD00F4F512E319
:0408FE0000000A13D9
:0408FF00F45FF06F43
:0409000000812C0343
:040901000010079348
:0409020000FBA22331
:0409030000090513CF
:04090400100000EFF0
:0409050000000513D6
:0409060001812A033E
:0409070001412A83FD
:0409080001012B03BB
:0409090000C12B837B
:04090A0000412C83F9
:04090B009A1FF06FD0
:04090C000540069309
:04090D0004E6E463B5
:04090E0000C7D71334
:04090F0006F70613CE
:0409100006E706935D
:040911000036161383
:04091200CD1FF06F96
:040913001540071371
:0409140004F764631D
:0409150000F4D79380
:040916000787859337
:0409170007778813C3
:0409180000359613FD
:040919009BDFF06F01
:04091A000089A403A9
:04091B0000442783EA
:04091C00C01FF06F99
:04091D00017CA02396
:04091E00E81FF06F6F
:04091F0015400693E6
:0409200004E6E463A2
:0409210000F7D713F1
:04092200078706132A
:0409230007770693B9
:040924000036161370
:04092500C85FF06F48
:04092600554007131E
:0409270004F764630A
:040928000124D7933C
:0409290007D78593D4
:04092A0007C7881360
:04092B0000359613EA
:04092C00971FF06FB2
:04092D00FF8C8C931C
:04092E00019A8AB3ED
:04092F00417A8AB3CC
:0409300000000A13A6
:04093100E7DFF06F9D
:040932005540069393
:0409330002E6E46391
:040934000127D713AD
:0409350007D70613C7
:0409360007C7069356
:04093700003616135D
:04093800C39FF06FFA
:040939003F800613E2
:04093A0007F005932A
:04093B0007E00813B6
:04093C00931FF06FA6
:04093D003F800613DE
:04093E0007E0069335
:04093F00C1DFF06FB5
:040940000049A78340
:04094100DA1FF06F5A
:04094200F90185131F
:040943008A4FF06F78
:04094400F90185131D
:040945008B4FF06F75
:04094600FF01011399
:040947000011262352
:040948000121202346
:040949000E058263B2
:04094A0000812423E1
:04094B0000912223D2
:04094C00000584130B
:04094D00000504930A
:04094E000005066337
:04094F0003452783B2
:0409500010078063A9
:0409510006442783AE
:0409520000C41703C3
:040953000017F793FF
:040954000A07966395
:0409550020077713ED
:040956000E0708631D
:040957000004059300
:0409580000048513FF
:04095900134000EF58
:04095A0002C4278329
:04095B000005091377
:04095C0000078A63A3
:04095D0001C4258329
:04095E0000048513F9
:04095F00000780E726
:040960000A054063E1
:0409610000C45783F4
:040962000807F793F8
:040963000A0792638A
:0409640003042583E0
:0409650000058C639A
:0409660004040793EB
:0409670000F58663AE
:0409680000048513EF
:04096900C98FF0EF53
:04096A000204282338
:04096B000444258398
:04096C000005886397
:04096D0000048513EA
:04096E00C84FF0EF8F
:04096F000404222337
:04097000B01FE0EFE5
:04097100064427838E
:040972000004162344
:040973000017F793DF
:040974000A07866385
:0409750005842503CD
:04097600FD1FE0EF92
:04097700AEDFE0EF20
:0409780000C1208317
:0409790000812403D2
:04097A000041248391
:04097B000009051357
:04097C00000129034A
:04097D000101011360
:04097E00000080678E
:04097F00F60710E384
:0409800000812403CB
:04098100004124838A
:040982000000091355
:0409830000C120830C
:04098400000905134E
:040985000001290341
:040986000101011357
:040987000000806785
:0409880000C45783CD
:04098900FFF009135F
:04098A000807F793D0
:04098B00F60782E306
:04098C0001042583BA
:04098D0000048513CA
:04098E00C04FF0EF77
:04098F00F55FF06FB1
:04099000A21FE0EFD3
:04099100F01FF06FF4
:0409920005842503B0
:04099300F65FE0EF3C
:0409940000C4178301
:04099500F00794E3F0
:040996000644278369
:040997000017F793BB
:04099800FA0790E3E7
:0409990005842503A9
:04099A00000009133D
:04099B00F5DFE0EFB5
:04099C0000812403AF
:04099D00004124836E
:04099E00F95FF06F9E
:04099F0005842503A3
:0409A000F49FE0EFF1
:0409A100F51FF06FDF
:0409A20000050593B4
:0409A3000000151724
:0409A40035452503AD
:0409A500E85FF06FA8
:0409A60000C59703EE
:0409A700FE01011339
:0409A80000812C237B
:0409A90001312623CF
:0409AA0000112E23E7
:0409AB0000877793B7
:0409AC0000058413AB
:0409AD0000050993A5
:0409AE001207906339
:0409AF00000017B776
:0409B00080078793A2
:0409B1000045A683D4
:0409B20000F767B330
:0409B30000F5962392
:0409B40018D05263A2
:0409B500028428038D
:0409B6000E080463C0
:0409B70000912A235E
:0409B800013716935A
:0409B9000009A4830A
:0409BA000009A0236D
:0409BB0001C42583CB
:0409BC001606CE63EA
:0409BD00000006131D
:0409BE00001006938C
:0409BF000009851393
:0409C000000800E744
:0409C100FFF00793A9
:0409C2000005061313
:0409C3001AF50463BA
:0409C40000C41783D1
:0409C500028428037D
:0409C60001C42583C0
:0409C7000047F7935B
:0409C80000078E6333
:0409C90000442703BC
:0409CA000304278378
:0409CB0040E60633C9
:0409CC000007866337
:0409CD0003C42783B5
:0409CE0040F60633B6
:0409CF00000006938B
:0409D0000009851382
:0409D100000800E733
:0409D200FFF0079398
:0409D30012F51463A2
:0409D4000009A683ED
:0409D50001D00793B3
:0409D60000C417033F
:0409D70016D7EA63E2
:0409D800204007B7FD
:0409D90000178793E9
:0409DA0000D7D7B3B8
:0409DB000017F79377
:0409DC001607806317
:0409DD0001042603E8
:0409DE00FFFFF7B769
:0409DF007FF7879384
:0409E00000F777B3F2
:0409E10000F41623E5
:0409E20000042223C8
:0409E30000C4202309
:0409E400013717932D
:0409E5000007D463D0
:0409E6001006826312
:0409E700030425835D
:0409E8000099A023AF
:0409E900100584630E
:0409EA000404079367
:0409EB0000F586632A
:0409EC000009851366
:0409ED00A88FF0EFF0
:0409EE00014124831C
:0409EF0002042823B3
:0409F00000000513EB
:0409F10001C120839D
:0409F2000181240358
:0409F30000C1298393
:0409F40002010113E8
:0409F5000000806717
:0409F6000121282390
:0409F7000105A9034A
:0409F8000809026385
:0409F90000912A231C
:0409FA000005A483CD
:0409FB000037771337
:0409FC000125A0230E
:0409FD00412484B35A
:0409FE00000007935B
:0409FF000007146376
:040A00000145A78382
:040A010000F42423B6
:040A020000904863B5
:040A03000540006F3B
:040A040000A9093309
:040A050004905663A0
:040A060002442783FC
:040A070001C425837E
:040A080000048693CD
:040A090000090613C7
:040A0A000009851347
:040A0B00000780E779
:040A0C0040A484B3CB
:040A0D00FCA04EE318
:040A0E0000C4170306
:040A0F0001012903B5
:040A1000040767135D
:040A110001412483F8
:040A120000E41623C3
:040A1300FFF00513D8
:040A1400F75FF06F29
:040A150003C5A683EC
:040A1600E6D04EE3F5
:040A1700F65FF06F27
:040A180001412483F1
:040A190001012903AB
:040A1A00F59FF06FE5
:040A1B0005042603A5
:040A1C00EADFF06FAE
:040A1D0000C41703F7
:040A1E000104268326
:040A1F00FFFFF7B727
:040A20007FF7879342
:040A210000F777B3B0
:040A220000F41623A3
:040A23000004222386
:040A240000D42023B7
:040A250001371793EB
:040A2600F007D2E320
:040A2700030425831C
:040A280004A42823D7
:040A29000099A0236D
:040A2A00F00590E360
:040A2B0001412483DE
:040A2C00F11FF06F57
:040A2D000009A78392
:040A2E00E4078CE36A
:040A2F0001D00713D8
:040A300000E78C63EC
:040A31000160071346
:040A320000E78863EE
:040A330000C41703E1
:040A34000407671339
:040A3500F71FF06F48
:040A36000099A02360
:040A370001412483D2
:040A3800EE1FF06F4E
:040A3900FF010113A5
:040A3A0000812423F0
:040A3B0000912223E1
:040A3C00001126235C
:040A3D000121202350
:040A3E000005049318
:040A3F000005841317
:040A40000005066344
:040A410003452783BF
:040A42000A078A63B2
:040A430000C4178351
:040A44000000091392
:040A450004078063BF
:040A46000644270338
:040A4700001777130A
:040A4800000716632A
:040A49002007F793F8
:040A4A0004078463B6
:040A4B00000405930B
:040A4C00000485130A
:040A4D00D65FF0EF91
:040A4E0006442783B0
:040A4F000005091382
:040A50000017F79301
:040A5100000798639F
:040A520000C4578302
:040A53002007F793EE
:040A540004078463AC
:040A550000C1208339
:040A560000812403F4
:040A570000412483B3
:040A58000009051379
:040A5900000129036C
:040A5A000101011382
:040A5B0000008067B0
:040A5C0005842503E5
:040A5D00C3DFE0EF24
:040A5E0000040593F8
:040A5F0000048513F7
:040A6000D19FF0EF43
:040A6100064427839D
:040A6200000509136F
:040A63000017F793EE
:040A6400FC0792E316
:040A6500FB5FF06FD4
:040A660005842503DB
:040A6700C2DFE0EF1B
:040A680000C1208326
:040A690000812403E1
:040A6A0000412483A0
:040A6B000009051366
:040A6C000001290359
:040A6D00010101136F
:040A6E00000080679D
:040A6F00EA4FE0EF7B
:040A7000F4DFF06F50
:040A71000A050C6303
:040A7200FF0101136C
:040A730000812423B7
:040A74000121202319
:040A75000011262323
:040A760000912223A6
:040A7700000019174B
:040A78000049290305
:040A7900000504135D
:040A7A000009066306
:040A7B000349278381
:040A7C000607846382
:040A7D0000C4178317
:040A7E0000000493DD
:040A7F000407806385
:040A800006442703FE
:040A810000177713D0
:040A820000071663F0
:040A83002007F793BE
:040A840004078A6376
:040A850000040593D1
:040A8600000905134B
:040A8700C7DFF0EFE6
:040A88000644278376
:040A890000050493CD
:040A8A000017F793C7
:040A8B000007986365
:040A8C0000C45783C8
:040A8D002007F793B4
:040A8E0002078C636C
:040A8F0000C12083FF
:040A900000812403BA
:040A91000001290334
:040A920000048513C4
:040A93000041248377
:040A94000101011348
:040A95000000806776
:040A9600000905133B
:040A9700E04FE0EF5D
:040A9800F95FF06FA3
:040A990005842503A8
:040A9A00B49FE0EF36
:040A9B00FA9FF06F5F
:040A9C0005842503A5
:040A9D00B55FE0EF72
:040A9E00FC5FF06F9A
:040A9F000000161726
:040AA00087C60613EC
:040AA10000000597B5
:040AA200E60585934D
:040AA3000000151723
:040AA40087C50513EA
:040AA500E9CFE06F46
:040AA600FF01011338
:040AA7000081242383
:040AA800000504132E
:040AA90000058513AC
:040AAA00F601AE2380
:040AAB0000112623ED
:040AAC00640000EFF3
:040AAD00FFF00793BC
:040AAE0000F50A63E2
:040AAF0000C12083DF
:040AB000008124039A
:040AB100010101132B
:040AB2000000806759
:040AB300F7C1A7835D
:040AB400FE0786E3D0
:040AB50000C12083D9
:040AB60000F4202305
:040AB7000081240393
:040AB8000101011324
:040AB9000000806752
:040ABA00FF01011324
:040ABB00008124236F
:040ABC000000079798
:040ABD007FC78793D5
:040ABE000000041719
:040ABF007F44041359
:040AC00040F40433C7
:040AC100009122235B
:040AC20000112623D6
:040AC30040245493E4
:040AC4000204806345
:040AC500FFC4041353
:040AC60000F4043301
:040AC700000427837D
:040AC800FFF4849320
:040AC900FFC404134F
:040ACA00000780E7BA
:040ACB00FE0498E3AA
:040ACC0000C12083C2
:040ACD00008124037D
:040ACE00004124833C
:040ACF00010101130D
:040AD000000080673B
:040AD1000005061303
:040AD2000000051308
:040AD3000015F69381
:040AD4000006846331
:040AD50000C5053320
:040AD6000015D5939F
:040AD70000161613DC
:040AD800FE0596E39E
:040AD9000000806732
:040ADA00FF01011304
:040ADB0000112623BD
:040ADC00008124234E
:040ADD0001010413FC
:040ADE0082C1A783A7
:040ADF0000078A631F
:040AE00082C1A783A5
:040AE100000780E7A3
:040AE2000005079371
:040AE3000080006F20
:040AE400F7C187933C
:040AE500000785136E
:040AE60000C12083A8
:040AE7000081240363
:040AE80001010113F4
:040AE9000000806722
:040AEA00FD010113F6
:040AEB0002112623AB
:040AEC00028124233C
:040AED0003010413EA
:040AEE00FCA42E2313
:040AEF00FDC4278398
:040AF0000207C463D2
:040AF100FDC4270316
:040AF200000707935F
:040AF30000179793BE
:040AF40000E787B3DD
:040AF50000279793AC
:040AF600000147377D
:040AF70085870713D5
:040AF80000E787B3D9
:040AF9000080006F0A
:040AFA00000007935E
:040AFB00FEF42423BE
:040AFC00FE842783CA
:040AFD0006078663FF
:040AFE00FE842783C8
:040AFF000007A783C2
:040B00000107A783BF
:040B01000207806304
:040B0200FE842783C3
:040B03000007A783BD
:040B04000107A783BB
:040B0500FE84250342
:040B0600000780E77D
:040B0700000507934B
:040B08000080006FFA
:040B0900000007934E
:040B0A00FEF42623AC
:040B0B00FDC42503FD
:040B0C0044C000EFF2
:040B0D00FEC4278378
:040B0E000207D063A7
:040B0F00F2DFF0EF32
:040B100000050713C2
:040B1100FEC4278374
:040B120040F007B3F5
:040B130000F72023A4
:040B1400FFF0079354
:040B15000200006F6B
:040B16000000079341
:040B17000180006FEA
:040B1800F09FF0EF6B
:040B190000050713B9
:040B1A000510079328
:040B1B0000F720239C
:040B1C00FFF007934C
:040B1D000007851335
:040B1E0002C120836D
:040B1F000281240328
:040B200003010113B9
:040B210000008067E9
:040B2200FE010113BC
:040B230000812E23FC
:040B240002010413B3
:040B2500FEA42623E1
:040B2600FEB42423D2
:040B2700FEC42223C3
:040B2800FE442783DD
:040B29000007851329
:040B2A0001C12403DE
:040B2B0002010113AF
:040B2C0000008067DE
:040B2D00FE010113B1
:040B2E0000112E2361
:040B2F0000812C23F2
:040B300002010413A7
:040B3100FEA42623D5
:040B32008201859324
:040B3300FEC42503D4
:040B340005C000EF09
:040B3500000507931D
:040B3600000785131C
:040B370001C1208355
:040B38000181240310
:040B390002010113A1
:040B3A0000008067D0
:040B3B00FF010113A2
:040B3C00001126235B
:040B3D0000812423EC
:040B3E00010104139A
:040B3F0082C1A78345
:040B400000078A63BD
:040B410082C1A78343
:040B4200000780E741
:040B4300000507930F
:040B44000080006FBE
:040B4500F7C18793DA
:040B4600000785130C
:040B470000C1208346
:040B48000081240301
:040B49000101011392
:040B4A0000008067C0
:040B4B00FD01011394
:040B4C000211262349
:040B4D0002812423DA
:040B4E000301041388
:040B4F00FCA42E23B1
:040B5000FCB42C23A2
:040B5100FDC4278335
:040B520000078863AD
:040B5300FDC4278333
:040B54000087A783EC
:040B550000079E6394
:040B5600F95FF0EF64
:040B5700000507137B
:040B5800016007939E
:040B590000F720235E
:040B5A00FEA007935F
:040B5B000540006FE2
:040B5C00FDC427832A
:040B5D00FD842703E9
:040B5E00FEE424236A
:040B5F00FEF4262357
:040B6000FEC4278325
:040B6100FE842703E4
:040B620000E7A223E3
:040B6300FE84278362
:040B64000007A703DC
:040B6500FEC4278320
:040B660000E7A023E1
:040B6700FE8427835E
:040B68000007A78358
:040B6900FEC427039C
:040B6A0000E7A223DB
:040B6B00FE8427835A
:040B6C00FEC4270399
:040B6D0000E7A023DA
:040B6E000000001370
:040B6F0000000793E8
:040B700000078513E2
:040B710002C120831A
:040B720002812403D5
:040B73000301011366
:040B74000000806796
:040B7500FD0101136A
:040B760002812623AF
:040B7700030104135F
:040B7800FCA42E2388
:040B79000000001365
:040B7A00FDC427830C
:040B7B00FEF426233B
:040B7C00FEC425038B
:040B7D0000050793D5
:040B7E000007866383
:040B7F007C103013A3
:040B80000080006F82
:040B81007C20301391
:040B8200000000135C
:040B8300000000135B
:040B8400FFDFF06F30
:040B8500FF01011358
:040B86000011262311
:040B870000812423A2
:040B88000101041350
:040B890082C1A783FB
:040B8A0000078A6373
:040B8B0082C1A783F9
:040B8C00000780E7F7
:040B8D0000050793C5
:040B8E000080006F74
:040B8F00F7C1879390
:040B900000078513C2
:040B910000C12083FC
:040B920000812403B7
:040B93000101011348
:040B94000000806776
:040B9500FD0101134A
:040B960002112623FF
:040B97000281242390
:040B9800030104133E
:040B9900FCA42E2367
:040B9A00FCB42C2358
:040B9B00FCC42A2349
:040B9C00FE0424230C
:040B9D00FDC42783E9
:040B9E000207C46323
:040B9F00FDC4270367
:040BA00000070793B0
:040BA100001797930F
:040BA20000E787B32E
:040BA30000279793FD
:040BA40000014737CE
:040BA5008587071326
:040BA60000E787B32A
:040BA7000080006F5B
:040BA80000000793AF
:040BA900FEF426230D
:040BAA00FEC42783DB
:040BAB000407826356
:040BAC00FEC42783D9
:040BAD000007A78313
:040BAE0001C7A78351
:040BAF000207846352
:040BB000FEC42783D5
:040BB1000007A7830F
:040BB20001C7A7834D
:040BB300FD442603D4
:040BB400FD84258314
:040BB500FEC4250352
:040BB600000780E7CD
:040BB700FEA4242351
:040BB8000180006F49
:040BB900F7A0079307
:040BBA00FEF42423FE
:040BBB0000C0006F07
:040BBC00FAF00793B1
:040BBD00FEF42423FB
:040BBE00FE84278307
:040BBF000207D063F6
:040BC000F15FF0EF02
:040BC1000005071311
:040BC200FE84278303
:040BC30040F007B344
:040BC40000F72023F3
:040BC500FFF00793A3
:040BC600FEF42423F2
:040BC700FE842783FE
:040BC800000785138A
:040BC90002C12083C2
:040BCA00028124037D
:040BCB00030101130E
:040BCC00000080673E
:040BCD00FF01011310
:040BCE0000112623C9
:040BCF00008124235A
:040BD0000101041308
:040BD10082C1A783B3
:040BD20000078A632B
:040BD30082C1A783B1
:040BD400000780E7AF
:040BD500000507937D
:040BD6000080006F2C
:040BD700F7C1879348
:040BD800000785137A
:040BD90000C12083B4
:040BDA00008124036F
:040BDB000101011300
:040BDC00000080672E
:040BDD00FD01011302
:040BDE0002112623B7
:040BDF000281242348
:040BE00003010413F6
:040BE100FCA42E231F
:040BE200FCB42C2310
:040BE300FCC42A2301
:040BE400FDC42783A2
:040BE5000207C463DC
:040BE600FDC4270320
:040BE7000007079369
:040BE80000179793C8
:040BE90000E787B3E7
:040BEA0000279793B6
:040BEB000001473787
:040BEC0085870713DF
:040BED0000E787B3E3
:040BEE000080006F14
:040BEF000000079368
:040BF000FEF42423C8
:040BF100FE842783D4
:040BF2000807866307
:040BF300FE842783D2
:040BF4000087A7834C
:040BF5000037F713BB
:040BF6000010079351
:040BF70006F7026398
:040BF800FE842783CD
:040BF9000007A783C7
:040BFA000147A78385
:040BFB0004078A63FE
:040BFC00FE842783C9
:040BFD000007A783C3
:040BFE000147A78381
:040BFF00FD44270387
:040C000000070613D0
:040C0100FD842583C6
:040C0200FE84250344
:040C0300000780E77F
:040C0400FEA4262301
:040C0500FEC427837F
:040C06000207D063AE
:040C0700F19FF0EF7A
:040C080000050713C9
:040C0900FEC427837B
:040C0A0040F007B3FC
:040C0B0000F72023AB
:040C0C00FFF007935B
:040C0D000340006F31
:040C0E00FEC4278376
:040C0F0002C0006FB0
:040C1000EF5FF0EFB3
:040C110000050713C0
:040C120000D0079374
:040C130000F72023A3
:040C14000140006F2C
:040C1500EE1FF0EFEF
:040C160000050713BB
:040C1700051007932A
:040C180000F720239E
:040C1900FFF007934E
:040C1A000007851337
:040C1B0002C120836F
:040C1C00028124032A
:040C1D0003010113BB
:040C1E0000008067EB
:040C1F00FE010113BE
:040C200000812E23FE
:040C210002010413B5
:040C2200FEA42623E3
:040C2300FEC42703E1
:040C24000020079312
:040C250004E7D663A7
:040C2600000147B7CB
:040C270085878693A4
:040C2800FEC42703DC
:040C29000007079326
:040C2A000017979385
:040C2B0000E787B3A4
:040C2C000027979373
:040C2D0000F687B393
:040C2E000007A423F4
:040C2F00000147B7C2
:040C3000858786939B
:040C3100FEC42703D3
:040C3200000707931D
:040C3300001797937C
:040C340000E787B39B
:040C3500002797936A
:040C360000F687B38A
:040C37000007A023EF
:040C380000000013A5
:040C390001C12403CE
:040C3A00020101139F
:040C3B0000008067CE
:040C3C00FC010113A3
:040C3D0002812E23DF
:040C3E000401041396
:040C3F00FCA42623C8
:040C40000080079396
:040C41003007B7F3CE
:040C4200FEF4222377
:040C4300FE442783C1
:040C4400FCF42E236B
:040C45008301A783FD
:040C46000037879359
:040C4700FFC7F79359
:040C48000007871307
:040C490082E1A82379
:040C4A008301A70378
:040C4B00FCC427833B
:040C4C0000F7073373
:040C4D00000207B7E3
:040C4E000007879381
:040C4F0002E7F26363
:040C5000FDC4278335
:040C5100FEF4242366
:040C5200FE84278372
:040C53000087F7938C
:040C54003007A07352
:040C55000000001388
:040C5600FFF0079311
:040C57000380006FA7
:040C58008301A783EA
:040C5900FEF4202362
:040C5A008301A70368
:040C5B00FCC427832B
:040C5C0000F7073363
:040C5D0082E1A82365
:040C5E00FDC4278327
:040C5F00FEF4262356
:040C6000FEC4278324
:040C61000087F7937E
:040C62003007A07344
:040C6300000000137A
:040C6400FE042783E0
:040C650000078513EC
:040C660003C124039F
:040C67000401011370
:040C680000008067A1
:040C6900FF01011373
:040C6A00001126232C
:040C6B0000812423BD
:040C6C00010104136B
:040C6D0082C1A78316
:040C6E0000078A638E
:040C6F0082C1A78314
:040C7000000780E712
:040C710000050793E0
:040C72000080006F8F
:040C7300F7C18793AB
:040C740000078513DD
:040C750000C1208317
:040C760000812403D2
:040C77000101011363
:040C78000000806791
:040C7900FD01011365
:040C7A00021126231A
:040C7B0002812423AB
:040C7C000301041359
:040C7D00FCA42E2382
:040C7E00FCB42C2373
