:020000021000EC
:100094009307000063880700170500001305454A0D
:1000A4006F00804867800000972100009381C1E1C0
:1000B400171500001305C57317260000130606A4C0
:1000C4003306A64093050000EF0040231705000007
:1000D4001305C545630805001705000013054546CB
:1000E400EF008044EF004015032501009305410013
:1000F40013060000EF00800D6F00401193870192FA
:1001040013870192630AF7009307000063860700D0
:10011400138501926780070067800000938701922E
:1001240093850192B385F54093D7254093D5F50186
:10013400B385F50093D51540638A05009307000045
:1001440063860700138501926780070067800000BB
:10015400130101FF2324810083C701952326110085
:1001640063940702EFF09FF993070000638A070086
:10017400371501001305856B97000000E7000000A8
:10018400930710002388F1948320C1000324810085
:1001940013010101678000009307000063860702D2
:1001A40037150100130101FF938541951305856BF4
:1001B4002326110097000000E70000008320C100FF
:1001C400130101016FF09FF56FF05FF5130101FE5C
:1001D400232E8100130401029307A0002326F4FEBA
:1001E400930740012324F4FE0327C4FE832784FEDF
:1001F400B307F7002322F4FEB7070200938707042E
:10020400032744FE23A0E7006F000000130101FF51
:100214009305000023248100232611001304050004
:10022400EF00801B83A7819263840700E7800700A7
:1002340013050400EF008044130101FF232481000F
:1002440023202101971700009387474717140000C4
:100254001304C446232611002322910033898740C6
:100264006380870213592940930400008327040004
:100274009384140013044400E7800700E3E824FF98
:1002840097170000938707441714000013040443CE
:100294003389874013592940638E870093040000F3
:1002A400832704009384140013044400E7800700A8
:1002B400E3E824FF8320C100032481008324410058
:1002C4000329010013010101678000006780000019
:1002D400678000006780000067800000678000007E
:1002E40067800000130510006780000013051000EC
:1002F4006780000067800000678000001303F0003F
:1003040013070500637EC3029377F7006390070A1F
:1003140063920508937606FF1376F600B386E6002B
:100324002320B7002322B7002324B7002326B700D5
:1003340013070701E366D7FE631406006780000015
:10034400B306C3409396260097020000B386560076
:100354006780C6002307B700A306B7002306B700CB
:10036400A305B7002305B700A304B7002304B7000F
:10037400A303B7002303B700A302B7002302B70007
:10038400A301B7002301B700A300B7002300B700FF
:100394006780000093F5F50F93968500B3E5D500CB
:1003A40093960501B3E5D5006FF0DFF69396270029
:1003B40097020000B386560093820000E78006FA95
:1003C40093800200938707FF3307F7403306F60054
:1003D400E378C3F66FF0DFF3130101FD2326710107
:1003E400938B419223286101130B050003A50B0095
:1003F400232C4101138AC194232021032324810146
:1004040023261102138C0500EFF09FED03290A0047
:10041400630C0908232E3101232A5101232481026C
:1004240023229102232291019309F0FF930A1000E1
:10043400832449001384F4FF634E0404939424003A
:10044400B304990063140C088327490083A644006D
:100454009387F7FF6380870C23A204006386060258
:100464008327891833978A00832C4900B377F700D0
:10047400639A0706E78006000327490083270A00DA
:1004840063149709639227091304F4FF9384C4FF48
:10049400E31A34FB03248102832441028329C1012A
:1004A400832A4101832C410003A50B008320C10250
:1004B40003290102032A8101032B0101832BC100BB
:1004C400032C8100130101036FF01FE383A7441081
:1004D400E38C87F71304F4FF9384C4FFE31834FF19
:1004E4006FF05FFB8327C91883A544083377F700AF
:1004F4006316070213050B00E78006000327490073
:1005040083270A00E30097F9E38607F813890700B5
:100514006FF01FF2232289006FF05FF4138505004A
:10052400E78006006FF05FF5930505009306000071
:1005340013060000130500006F000006130101FFFD
:1005440023248100971700009387C717171400000E
:10055400130484173304F44023229100232611004A
:1005640093542440638004021304C4FF3304F4004E
:10057400832704009384F4FF1304C4FFE780070077
:10058400E39804FE8320C1000324810083244100F6
:100594001301010167800000130101FE23282101DA
:1005A40013894192232C81001304050003250900BB
:1005B400232A91002326310123244101232E1100F3
:1005C40093840500130A060093890600EFF05FD1B7
:1005D4001387C194832707006386070803A747008E
:1005E4009305F0010325090063C4E508931527006A
:1005F400631E04021307170023A2E700B387B700A2
:1006040023A49700EFF05FCF130500008320C101FE
:100614000324810183244101032901018329C100A9
:10062400032A810013010102678000003388B700A8
:100634002324480983A68718130610003316E600FE
:10064400B3E6C60023A4D718232438119306200048
:10065400E312D4FA83A6C718B3E6C60023A6D718B4
:100664006FF05FF9938741AA2320F7006FF01FF71B
:10067400EFF09FC81305F0FF6FF05FF99308D00502
:1006840073000000634405006F000000130101FFC4
:100694002324810013040500232611003304804021
:1006A400EF00C000232085006F00000003A5019225
:0406B400678000005B
:0416B800000000002E
:0816BC00940001009C010100F3
:0416C40054010100CC
:1016C80000000000341801009C18010004190100F2
:1016D8000000000000000000000000000000000002
:1016E80000000000000000000000000000000000F2
:1016F80000000000000000000000000000000000E2
:1017080000000000000000000000000000000000D1
:1017180000000000000000000000000000000000C1
:1017280000000000000000000000000000000000B1
:1017380000000000000000000000000000000000A1
:101748000000000000000000000000000000000091
:101758000000000000000000010000000000000080
:101768000E33CDAB34126DE6ECDE05000B00000045
:101778000000000000000000000000000000000061
:101788000000000000000000000000000000000051
:101798000000000000000000000000000000000041
:1017A8000000000000000000000000000000000031
:1017B8000000000000000000000000000000000021
:1017C8000000000000000000000000000000000011
:1017D8000000000000000000000000000000000001
:0817E800C81601000C180100F5
:04000003100000AC3D
:00000001FF
